:100000000C942A000C9447000C9447000C94470071
:100010000C9447000C9447000C9447000C94470044
:100020000C9447000C9447000C9447000C94470034
:100030000C9447000C9447000C9447000C94470024
:100040000C9447000C9447000C9447000C94470014
:100050000C94470011241FBECFE5D4E0DEBFCDBF16
:1000600010E0A0E6B0E0E0EDF3E002C005900D92F4
:10007000A03AB107D9F710E0A0EAB0E001C01D92A4
:10008000A03AB107E1F70E9486000C94E6010C94B7
:100090000000CF93DF938BB38F608BBB60E070E089
:1000A000C0E4D0E0A8E0B0E0E62F8AB380788ABB55
:1000B0002AB3CE01062E02C0959587950A94E2F7E1
:1000C000282B2ABB40E050E089B39D01042E02C0DA
:1000D000359527950A94E2F790E028233923232BBE
:1000E00039F4CA01880F991F840F951F8E0F0BC01A
:1000F0004F5F5F4F4430510539F76F5F7F4F63307B
:10010000710591F680E0DF91CF9108951F9380E013
:1001100090E00197F1F780E00E9479010E94490088
:10012000182F80E060E00E946701812F90E063E07B
:1001300070E00E940901F2CF87B3807F87BB969A57
:10014000939882E08A95F1F722E035E0C49A822FF5
:100150008A95F1F786B38295807F922F9A95F1F771
:10016000C498932F9A95F1F7C49A922F9A95F1F724
:1001700096B3922F9A95F1F7C498932F9A95F1F729
:1001800087FDE4CF969887B38F6087BB0895282FAB
:10019000662311F4939801C0939A82E08A95F1F74F
:1001A000C49A88B3922F92959F70807F982B98BBAA
:1001B00095E0892F8A95F1F7C498892F8A95F1F7F0
:1001C000C49A88B32F70807F822B88BB892F8A9531
:1001D000F1F7C4989A95F1F70E949C000895CF9387
:1001E000DF93EC0110C0853251F421968881805351
:1001F000883028F085E261E00E94C700888161E0D4
:100200000E94C70021968881882369F7DF91CF91EA
:100210000895EF92FF920F931F93DF93CF9300D037
:1002200000D00F92CDB7DEB79C018B01FE01319655
:1002300085E0DF011D928A95E9F7FE0135960DC034
:10024000C9016AE070E00E94BF018083C9016AE0D1
:1002500070E00E94BF019B0131972115310581F7A4
:10026000BFEF0F3F1B0779F420E030E0AE014F5F96
:100270005F4F02C02F5F3F4FFA01E20FF31F8081F3
:100280008823C1F304C025E030E0201B310B7E0140
:100290000894E11CF11CE20EF31E890109C0F7016C
:1002A00081917F01805D61E00E94C7000F5F1F4F59
:1002B00005301105A4F30F900F900F900F900F9041
:1002C000CF91DF911F910F91FF90EF9008958431AE
:1002D00078F4623031F0633031F0613029F48064B9
:1002E00003C08C5E01C08C5A806860E00E94C70029
:1002F00008951F93CF93DF93182F8CE291E020E9AC
:1003000031E0F9013197F1F70197D9F787B38F60A1
:1003100087BBBC9A8B9A8E9A88B3807F88BBC4981F
:100320009698939881E08A95F1F7C49AC19A85E0EE
:10033000982F9A95F1F7C4988A95F1F70E949C003E
:10034000812F8C6060E00E94C70088E260E00E941C
:10035000C70080E460E00E94C700C0E6D0E0899159
:1003600061E00E94C70080E0C03AD807C1F780E092
:1003700060E00E946701DF91CF911F91089597FB84
:10038000092E07260AD077FD04D00CD006D0002015
:100390001AF4709561957F4F0895F6F790958195C1
:1003A0009F4F0895AA1BBB1B51E107C0AA1FBB1F8B
:1003B000A617B70710F0A61BB70B881F991F5A95F1
:1003C000A9F780959095BC01CD010895F894FFCFD1
:1003D0000C12120C000000000C1204081E00000099
:1003E0000A15110A040000000305090B0B18180078
:1003F0001F0E0E0404040404010105051515150063
:100400000E11111F1F1F1F00000000000000000040
:00000001FF
