:100A6B00436F6D707574726F6E696373204C616246
:0D0A7B00204C4344204578616D706C65008F
:09091600120800D2817F057E0069
:10091F00E4FDFCC3ED9FEE6480F8EC648098501505
:10092F00E4FBFA0BBB00010AEB64644A70F50DBDE2
:05093F0000010C80DE48
:010944002290
:10080000EF30E004D2008002C200EF30E104D200F9
:100810008002C200EF30E204D2008002C200EF305A
:10082000E304D2008002C200EF30E404D2A48002CC
:10083000C2A4EF30E504D2A58002C2A5EF30E604E1
:10084000D2A68002C2A6EF30E703D2A722C2A72217
:070AB5007E0012091F7F30D3
:080ABC00C280120916C281225A
:050AF6007F01020ABCB3
:100A88008F12A905E512B40105E924808008E51252
:0B0A9800B40207E924C0FF120ABC22D0
:1009F300E4FF120800C2807FC8120AB57F32120AD0
:100A0300B57F6E120AB57F38120ABC7F0C120ABC7E
:0A0A13007F01120ABC7F06020ABC34
:080AEE00D280120916C2812218
:060972008B088A09890AC6
:10097800E4F50BF50CAB08AA09A90A850C82850BCE
:1009880083120945FF600D120AEE050CE50C70E5AF
:04099800050B80E1EA
:01099C002238
:050AFB007F1C020ABC93
:050B00007F18020ABC91
:100A1D00EF30E004D2A48002C2A4EF30E104D2A5ED
:100A2D008002C2A5EF30E204D2A68002C2A6EF304A
:080A3D00E303D2A722C2A722A5
:070AA3007E0012091F7F0312
:0B0AAA00C280120A1D120919C281222D
:0A0AD000E4FF120AAA7F01020AAA3D
:04089F008F0DA9050B
:1008A300E50DB40112E92480FFF50E7804A2E713E5
:1008B300D8FBF50FEF8016E50DB4021FE92480F590
:1008C3000E7804A2E713D8FBF50FE924C0540FF503
:0B08D30010AF0F120AAAAF10120AAA01
:0108DE0022F7
:1008DF00E4FF120A1D7FC8120AA37F32120AA37FF8
:1008EF006E120AA37F02120AAA7F02120AAA7F08B7
:1008FF00120AAAE4FF120AAA7F0C120AAAE4FF1234
:07090F000AAA7F06020AAAF2
:02099D00AE07A3
:10099F00EE540FF9EE54F0FFD2807804A2E713D88B
:1009AF00FBFF120A1D120919C281AF01120A1DD2D3
:0809BF00817F0512091FC281AE
:0109C700220D
:0609C8008B0D8A0E890F61
:1009CE00E4F510F511AB0DAA0EA90F851182851055
:1009DE0083120945FF600D12099D0511E51170E5A1
:0409EE00051080E18F
:0109F20022E2
:0A0ADA007F01120AAA7F0C020AAA8B
:0A0AE4007F01120AAA7F08020AAA85
:100A4500E4FDFCC3ED9FEE6480F8EC6480985015DE
:100A5500E4FBFA0BBB00010AEB64644A70F50DBDBB
:050A650000010C80DE21
:010A6A002269
:100850001208DF7D017F0112089F7BFF7A0A796B06
:100860001209C87F887E13120A459000007FE87E37
:1008700003120A45120AE4A3E5826412458370ED6F
:10088000E4F583F582C3E5829412E5836480948065
:0F08900050C17FE87E03120A45120ADAA380E600
:03000000020AC42D
:0C0AC400787FE4F6D8FD7581120208501E
:10094500BB010CE58229F582E5833AF583E0225067
:1009550006E92582F8E622BBFE06E92582F8E222B1
:0D096500E58229F582E5833AF583E49322CB
:00000001FF
