:030000000208797A
:0C087900787FE4F6D8FD758107020800C6
:10085900E4FDFCD3ED9FEC9E5015E4FBFA0BBB00C5
:0F086900010ABA06F8BB8CF50DBD00010C80E446
:01087800225D
:10080000E4F5A0D2A07F0A7E00120859C2A0120807
:1008100059D2A1120859C2A1120859D2A2120859DC
:10082000C2A2120859D2A3120859C2A3120859D25F
:10083000A4120859C2A4120859D2A5120859C2A577
:10084000120859D2A6120859C2A6120859D2A712E4
:090850000859C2A712085980AA38
:00000001FF
