:1008F700536F6C617220426173656400497272695B
:10090700676174696F6E205379730057657420436C
:100917006F6E646974696F6E004D6F746F72204FEC
:1009270066660044727920436F6E646974696F6EFE
:0A093700004D6F746F72204F6E00C8
:0909B8001208A7D2817F057E0020
:1009C100E4FDFCC3ED9FEE6480F8EC648098501563
:1009D100E4FBFA0BBB00010AEB64644A70F50DBD40
:0509E10000010C80DEA6
:0109E60022EE
:1008A700EF30E004D2A08002C2A0EF30E104D2A171
:1008B7008002C2A1EF30E204D2A28002C2A2EF30CE
:1008C700E304D2A38002C2A3EF30E404D2A48002DF
:1008D700C2A4EF30E504D2A58002C2A5EF30E6043A
:1008E700D2A68002C2A6EF30E703D2A722C2A72270
:070B42007E001209C17F30A3
:080B4900C2801209B8C281222A
:050B83007F01020B4997
:040B11007D017F01E2
:100B15008F0DA905E50DB40105E924808008E50DD3
:0B0B2500B40207E924C0FF120B4922B4
:100A9500E4FF1208A7C2807FC8120B427F32120BF7
:100AA500427F6E120B427F38120B497F0C120B49A5
:0A0AB5007F01120B497F06020B4976
:080B7B00D2801209B8C28122E8
:060A14008B0D8A0E890F14
:100A1A00E4F510F511AB0DAA0EA90F851182851008
:100A2A00831209E7FF600D120B7B0511E51170E5D2
:040A3A00051080E142
:010A3E002295
:050B88007F1C020B4977
:050B8D007F18020B4976
:100AE900EF30E004D2A48002C2A4EF30E104D2A521
:100AF9008002C2A5EF30E204D2A68002C2A6EF307E
:080B0900E303D2A722C2A722D8
:070B30007E001209C17F03E2
:0B0B3700C280120AE91209BBC2812231
:0A0B5D00E4FF120B377F01020B3793
:040941008F12A90563
:10094500E512B40112E92480FFF5137804A2E71338
:10095500D8FBF514EF8016E512B4021FE92480F5E3
:10096500137804A2E713D8FBF514E924C0540FF556
:0B09750015AF14120B37AF15120B3733
:010980002254
:10098100E4FF120AE97FC8120B307F32120B307F6D
:100991006E120B307F02120B377F02120B377F086A
:1009A100120B37E4FF120B377F0C120B37E4FF12E7
:0709B1000B377F06020B3734
:020A3F00AE0700
:100A4100EE540FF9EE54F0FFD2807804A2E713D8E8
:100A5100FBFF120AE91209BBC281AF01120AE9D2F6
:080A6100817F051209C1C28169
:010A6900226A
:060A6A008B088A09890ACD
:100A7000E4F50BF50CAB08AA09A90A850C82850BD5
:100A8000831209E7FF600D120A3F050CE50C70E5C3
:040A9000050B80E1F1
:010A9400223F
:0A0B67007F01120B377F0C020B37E1
:0A0B71007F01120B377F08020B37DB
:040ABF007FE87E034B
:100AC300E4FDFCC3ED9FEE6480F8EC648098501560
:100AD300E4FBFA0BBB00010AEB64644A70F50DBD3D
:050AE30000010C80DEA3
:010AE80022EB
:100800007580FFE4F5B0120A95120B117BFF7A0890
:1008100079F7120A147D017F02120B157BFF7A090A
:100820007903120A14900000120ABF120B8DA3E57F
:1008300082640F458370F1E4F583F582120ABF12DA
:100840000B88A3E582640F458370F17FB87E0B129D
:100850000AC3308323120B117BFF7A097912120A23
:10086000147D017F02120B157BFF7A097920120A91
:1008700014D2B0D2B1120ABF208323120B117BFF16
:100880007A09792A120A147D017F02120B157BFF67
:100890007A097938120A14D2B0C2B1120ABF7FD0D5
:0708A0007E07120AC380ABC2
:03000000020B519F
:0C0B5100787FE4F6D8FD758115020800DD
:1009E700BB010CE58229F582E5833AF583E02250C5
:1009F70006E92582F8E622BBFE06E92582F8E2220F
:0D0A0700E58229F582E5833AF583E4932228
:00000001FF
