:100AAB0063656C6162206C6364206578616D706C4A
:0B0ABB00650057656C636F6D652000DF
:09093700120870D2817F057E00D8
:10094000E4FDFCC3ED9FEE6480F8EC6480985015E4
:10095000E4FBFA0BBB00010AEB64644A70F50DBDC1
:0509600000010C80DE27
:01096500226F
:10087000EF30E004D2A08002C2A0EF30E104D2A1A8
:100880008002C2A1EF30E204D2A28002C2A2EF3005
:10089000E304D2A38002C2A3EF30E404D2A4800216
:1008A000C2A4EF30E504D2A58002C2A5EF30E60471
:1008B000D2A68002C2A6EF30E703D2A722C2A722A7
:070AD8007E001209407F308F
:080ADF00C280120937C2812216
:050B19007F01020ADF6C
:100A90008F0DA905E50DB40105E924808008E50D59
:0B0AA000B40207E924C0FF120ADF22A5
:100A1400E4FF120870C2807FC8120AD87F32120A1B
:100A2400D87F6E120AD87F38120ADF7F0C120ADFD1
:0A0A34007F01120ADF7F06020ADFCD
:080B1100D280120937C28122D3
:060993008B0D8A0E890F96
:10099900E4F510F511AB0DAA0EA90F85118285108A
:1009A90083120966FF600D120B110511E51170E53F
:0409B900051080E1C4
:0109BD002217
:050B1E007F1C020ADF4C
:050B23007F18020ADF4B
:100A6800EF30E004D2A48002C2A4EF30E104D2A5A2
:100A78008002C2A5EF30E204D2A68002C2A6EF30FF
:080A8800E303D2A722C2A7225A
:070AC6007E001209407F03CE
:0B0ACD00C280120A6812093AC281229E
:0A0AF300E4FF120ACD7F01020ACDD4
:0408C0008F12A905E5
:1008C400E512B40112E92480FFF5137804A2E713BA
:1008D400D8FBF514EF8016E512B4021FE92480F565
:1008E400137804A2E713D8FBF514E924C0540FF5D8
:0B08F40015AF14120ACDAF15120ACD8B
:0108FF0022D6
:10090000E4FF120A687FC8120AC67F32120AC67F45
:100910006E120AC67F02120ACD7F02120ACD7F082C
:10092000120ACDE4FF120ACD7F0C120ACDE4FF12A9
:070930000ACD7F06020ACD8B
:0209BE00AE0782
:1009C000EE540FF9EE54F0FFD2807804A2E713D86A
:1009D000FBFF120A6812093AC281AF01120A68D2FB
:0809E000817F05120940C2816C
:0109E80022EC
:0609E9008B088A09890A4F
:1009EF00E4F50BF50CAB08AA09A90A850C82850B57
:1009FF0083120966FF600D1209BE050CE50C70E548
:040A0F00050B80E172
:010A130022C0
:0A0AFD007F01120ACD7F0C020ACD22
:0A0B07007F01120ACD7F08020ACD1B
:040A3E007FE87E03CC
:100A4200E4FDFCC3ED9FEE6480F8EC6480985015E1
:100A5200E4FBFA0BBB00010AEB64644A70F50DBDBE
:050A620000010C80DE24
:010A6700226C
:10080000120A147D017F01120A907BFF7A0A79ABEC
:10081000120993900000120A3E120B23A3E5826492
:100820000F458370F1E4F583F582120A3E120B1E28
:10083000A3E582640F458370F1120B197D017F02DD
:10084000120A907BFF7A0A79BD120993E4F583F5C9
:1008500082120A3EA3E582640F458370F47F6F1213
:100860000B117F6B120B117FB87E0B120A42809323
:03000000020AE70A
:0C0AE700787FE4F6D8FD75811502080048
:10096600BB010CE58229F582E5833AF583E0225046
:1009760006E92582F8E622BBFE06E92582F8E22290
:0D098600E58229F582E5833AF583E49322AA
:00000001FF
