:100000000C942A000C9447000C9447000C94470071
:100010000C9447000C9447000C9447000C94470044
:100020000C9447000C9447000C9447000C94470034
:100030000C9447000C9447000C9447000C94470024
:100040000C9447000C9447000C9447000C94470014
:100050000C94470011241FBECFE5D4E0DEBFCDBF16
:1000600010E0A0E6B0E0EAE1F5E002C005900D92F4
:10007000A63EB107D9F711E0A6EEB0E001C01D928F
:10008000A132B107E1F70E94A0000C948B020C94FE
:10009000000020E030E048EB5BE0FA013197F1F737
:1000A0002F5F3F4F82179307C0F7089588E18AB901
:1000B00080B5866880BD8DE489B910BC08955F9BCA
:1000C000FECF8CB190E008955D9BFECF8CB9089572
:1000D000FC0104C05D9BFECFECB931968081882382
:1000E000C9F708950F931F93CF93DF93162F072F10
:1000F00080E690E00E942A0281E390E00E942302C1
:1001000089E690E00E942A0282E290E00E942302A7
:10011000212F302FC901EC0103C090E00E9423027F
:1001200089918823D1F782E790E00E942A0286E332
:1001300092E30E942302DF91CF911F910F910895C6
:100140001F9314BA8FEF85BB88E18AB980B58668A2
:1001500080BD8DE489B910BC80E090E028EB3BE0E5
:10016000F9013197F1F7019643E0893E9407C1F711
:10017000E0EAF0E004C05D9BFECFECB931968081EF
:100180008823C9F780E090E028EB3BE0F901319744
:10019000F1F7019683339105C9F7E6E9F0E004C071
:1001A0005D9BFECFECB9319680818823C9F75D9BBA
:1001B000FECF8DE08CB980E090E028EB3BE0F901C8
:1001C0003197F1F7019685319105C9F780E090E00C
:1001D00028EB3BE0F9013197F1F701968531910564
:1001E000C9F7E2ECF0E004C05D9BFECFECB93196BC
:1001F00080818823C9F75D9BFECF8DE08CB9E4EA4E
:10020000F0E004C05D9BFECFECB93196808188237D
:10021000C9F75D9BFECF8AE18CB980E090E028EBC6
:100220003BE0F9013197F1F7019643E0893E9407ED
:10023000C1F767ED70E082EE90E00E94720010E27C
:1002400048EB5BE06DE07AE13091E7002091E60059
:100250005F9BFECF9CB1943209F05BC05F9BFECFE9
:100260009CB1973409F055C05F9BFECF9CB190358F
:1002700009F04FC05F9BFECF9CB1973409F049C095
:100280005F9BFECF9CB1913409F043C05F9BFECFD2
:100290009CB19C32F1F55F9BFECF02C05F9BFECF0D
:1002A0008CB18C32D9F790E009C05F9BFECF8CB146
:1002B000E92FF0E0ED50FF4F80839F5F9930A9F761
:1002C0005F9BFECF8CB15F9BFECF3CB15F9BFECFAF
:1002D0008CB190E009C05F9BFECF8CB1E92FF0E0BC
:1002E000E751FF4F80839F5F9A30A9F75F9BFECF56
:1002F0009CB181E009C05F9BFECF9CB1E82FF0E08C
:10030000E751FF4F90838F5F9C32A9F75F9BFECF31
:100310002CB18091F300882309F49ACF8091E900F1
:10032000882309F495CF3093E7002093E60090935B
:100330001A0190E00AC0E92FF0E0DF01AD50BF4F95
:100340008C91E450FF4F80839F5F9930A0F33093EE
:1003500005011093060190E00AC0E92FF0E0DF01EB
:10036000A751BF4F8C91E450FF4F83879F5F9A3016
:10037000A0F39093E800209311011092120183B32F
:100380008F3FE9F380E090E0FA013197F1F70196B1
:1003900023E0893E9207C1F7E0EAF0E004C05D9BEC
:1003A000FECFECB9319680818823C9F780E090E0D8
:1003B000FA013197F1F7019683339105C9F7E6E920
:1003C000F0E004C05D9BFECFECB9319680818823BC
:1003D000C9F75D9BFECF6CB980E090E0FA013197E0
:1003E000F1F7019685319105C9F780E090E0FA01B7
:1003F0003197F1F7019685319105C9F7EEE7F0E005
:1004000004C05D9BFECFECB9319680818823C9F78B
:100410005D9BFECF6CB9ECEFF0E004C05D9BFECFBE
:10042000ECB9319680818823C9F75D9BFECF7CB9FA
:1004300080E090E0FA013197F1F7019623E0893EE0
:100440009207C1F701CF60911D0170911E010E94BA
:100450005F0208950F931F93CF93DF938C01E09178
:100460001D01F0911E01838181FF21C0C0E0D0E019
:100470000DC0E0911D01F0911E0120853185BF0165
:10048000F9010995892B11F0CFEFDFEFF801819188
:100490008F01882371F7E0911D01F0911E012085E5
:1004A0003185BF018AE0F9010995892B11F0CFEF61
:1004B000DFEFCE01DF91CF911F910F9108950F9340
:1004C0001F93CF93DF938C01EB018B8181FF1BC0C6
:1004D00082FF0DC02E813F818C819D8128173907B5
:1004E00064F4E881F9810193F983E88306C0E88523
:1004F000F985802F0995892B31F48E819F81019692
:100500009F838E8302C00FEF1FEFC801DF91CF9151
:0A0510001F910F910895F894FFCF9A
:10051A0041542B434D47463D0041542B434D4753CD
:10052A003D0048656C6C6F20576F726C64004154D3
:10053A002B434D47533D222B393139393538333521
:10054A0037343436220041542B434D47463D31005F
:10055A0041544800576F726B696E672067736D204C
:10056A006D6F64756C65206F6B207368616E6B616B
:10057A00720041542B434D47533D223939353833A4
:10058A00353734343622003939353833353734344F
:06059A0036004F4B00B0DB
:00000001FF
