:100000000C942A000C9447000C9447000C94470071
:100010000C9447000C9447000C9447000C94470044
:100020000C9447000C9447000C9447000C94470034
:100030000C9447000C9447000C9447000C94470024
:100040000C9447000C9447000C9447000C94470014
:100050000C94470011241FBECFE5D4E0DEBFCDBF16
:1000600010E0A0E6B0E0E8E0F3E002C005900D92F9
:10007000A838B107D9F710E0A8E8B0E001C01D9298
:10008000AD3BB107E1F70E9449000C9482010C944A
:1000900000001F9314BA8FEF85BB88E18AB980B541
:1000A000866880BD8DE489B910BC10E248EB5BE046
:1000B0006DE07AE130918900209188005F9BFECF4E
:1000C0009CB1943209F05BC05F9BFECF9CB197342A
:1000D00009F055C05F9BFECF9CB1903509F04FC031
:1000E0005F9BFECF9CB1973409F049C05F9BFECF68
:1000F0009CB1913409F043C05F9BFECF9CB19C3210
:10010000F1F55F9BFECF02C05F9BFECF8CB18C32BE
:10011000D9F790E009C05F9BFECF8CB1E92FF0E0EA
:10012000EB56FF4F80839F5F9930A9F75F9BFECF0F
:100130008CB15F9BFECF3CB15F9BFECF8CB190E05A
:1001400009C05F9BFECF8CB1E92FF0E0E557FF4F70
:1001500080839F5F9A30A9F75F9BFECF9CB181E0BF
:1001600009C05F9BFECF9CB1E82FF0E0E557FF4F41
:1001700090838F5F9C32A9F75F9BFECF2CB180915B
:100180009500882309F49ACF80918B00882309F485
:1001900095CF30938900209388009093BC0090E025
:1001A0000AC0E92FF0E0DF01AB56BF4F8C91E25659
:1001B000FF4F80839F5F9930A0F33093A700109387
:1001C000A80090E00AC0E92FF0E0DF01A557BF4F7B
:1001D0008C91E256FF4F83879F5F9A30A0F39093F4
:1001E0008A002093B3001092B40083B38F3FE9F3E9
:1001F00080E090E0FA013197F1F7019623E0893E23
:100200009207C1F7E2E8F0E004C05D9BFECFECB9D5
:10021000319680818823C9F780E090E0FA01319718
:10022000F1F7019683339105C9F7E8E7F0E004C0E0
:100230005D9BFECFECB9319680818823C9F75D9B29
:10024000FECF6CB980E090E0FA013197F1F70196AA
:1002500085319105C9F780E090E0FA013197F1F717
:10026000019685319105C9F7E0E6F0E004C05D9B99
:10027000FECFECB9319680818823C9F75D9BFECF14
:100280006CB9EEE9F0E004C05D9BFECFECB93196AD
:1002900080818823C9F75D9BFECF7CB980E090E028
:1002A000FA013197F1F7019627E281319207C1F700
:1002B00001CF20E030E048EB5BE0FA013197F1F745
:1002C0002F5F3F4F82179307C0F7089588E18AB9DF
:1002D00080B5866880BD8DE489B910BC08955F9BA8
:1002E000FECF8CB190E008955D9BFECF8CB9089550
:1002F000FC0104C05D9BFECFECB931968081882360
:08030000C9F70895F894FFCF3E
:1003080041542B434D47533D222B3931373832372F
:10031800383535303235220041542B434D47463D60
:08032800310041544800B0000F
:00000001FF
