:020000001628C0
:0E000600831203135D088A005C088200080064
:1000140003208A110A128000840ADC0A0319DD0A0B
:08002400F003031D0A28080087
:10002C00942083120313DE01831686018801F301E9
:10003C006430730203184D28F10106307102031865
:10004C00432872082A3E8400000883128600710837
:10005C00203E8400000888000B30FC006230FD005C
:10006C00FD0B3628FC0B36280000F20A7208143AF5
:10007C00031D4128F201F10A232883125E08F200C5
:10008C005E08143A031D4B28DE01F30A1E28831266
:0A009C00DE0A5E08F2001D2852285B
:10012800203084003C3083120313F0005830DC0088
:080138000030DD000A20080080
:1000B0000134023404340834103400340034003481
:0400C00000340034D4
:1000C400C134B734B734C134FF348134BD34BD34A2
:1000D400C334FF34FF34BD348134BD34FF34FF34C2
:1000E400BF348134BF34FF348134B734B334CD34B6
:1000F400FF349934E734E7349934FF348134E734F6
:10010400DB34BD34FF3400340034003400340034B4
:10011400003400340034003400340034003400343B
:04012400003400346F
:02400E004A2F37
:00000001FF
