:0300000002097280
:0C097200787FE4F6D8FD7581110208F6CC
:0A097E003F065B4F666D7D077F6743
:0F093D00C2817F2C7E0112094CD2817FE87E039C
:10094C00E4FDFCC3ED9FEE6480F8EC6480985015D8
:10095C00E4FBFA0BBB00010ABA04F8BBFBF50DBDB6
:05096C0000010C80DE1B
:010971002263
:1008F60078087C007D007BFF7A09797E7E007F0A7E
:100906001208D075B0FF7580FF20B0058509A0805C
:100916001620B105850AA0800E20B205850BA080A1
:100926000620B308850CA012093D80DD20B4DA85C7
:070936000DA012093D80D263
:10080000E709F608DFFA8046E709F208DFFA803EDA
:1008100088828C83E709F0A3DFFA8032E309F608C7
:10082000DFFA8078E309F208DFFA807088828C832F
:10083000E309F0A3DFFA806489828A83E0A3F608E3
:10084000DFFA805889828A83E0A3F208DFFA804CBD
:1008500080D280FA80C680D4806980F28033801094
:1008600080A680EA809A80A880DA80E280CA8033FD
:1008700089828A83ECFAE493A3C8C582C8CCC58375
:10088000CCF0A3C8C582C8CCC583CCDFE9DEE78045
:100890000D89828A83E493A3F608DFF9ECFAA9F0C4
:1008A000EDFB2289828A83ECFAE0A3C8C582C8CC1A
:1008B000C583CCF0A3C8C582C8CCC583CCDFEADE33
:1008C000E880DB89828A83E493A3F208DFF980CC95
:1008D00088F0EF60010E4E60C388F0ED2402B4048E
:1008E0000050B9F582EB2402B4040050AF23234535
:0608F00082239008507302
:00000001FF
