:020000001628C0
:0E0006008312031321088A00200882000800DC
:1000140003208A110A128000840AA00A0319A10A83
:08002400F003031D0A28080087
:10002C00831603138601831206100330FB008A30FB
:10003C00FC005530FD00FD0B2128FC0B2128FB0B8F
:10004C0021280000000006140330FB008A30FC005D
:10005C005530FD00FD0B3028FC0B3028FB0B3028F5
:10006C000000000086100330FB008A30FC00553085
:10007C00FD00FD0B3F28FC0B3F28FB0B3F2800002D
:10008C00000086140330FB008A30FC005530FD0064
:10009C00FD0B4E28FC0B4E28FB0B4E2800000000DD
:1000AC0006110330FB008A30FC005530FD00FD0BBF
:1000BC005D28FC0B5D28FB0B5D280000000006157D
:1000CC000330FB008A30FC005530FD00FD0B6C2822
:1000DC00FC0B6C28FB0B6C28000000008611033015
:1000EC00FB008A30FC005530FD00FD0B7B28FC0B1F
:1000FC007B28FB0B7B280000000006160330FB005E
:10010C008A30FC005530FD00FD0B8A28FC0B8A2838
:0C011C00FB0B8A28000000001928932823
:02400E004A2F37
:00000001FF
