:100000000C9446000C9466000C9466000C946600F8
:100010000C9466000C9466000C9466000C946600C8
:100020000C9466000C9466000C9466000C946600B8
:100030000C9466000C9466000C9466000C946600A8
:100040000C9466000C9466000C9466000C94660098
:100050000C9466000C9466000C9466000C94660088
:100060000C9466000C9466000C9466000C94660078
:100070000C9466000C9466000C9466000C94660068
:100080000C9466000C9466000C94660011241FBE4C
:10009000CFEFD0E1DEBFCDBF11E0A0E0B1E0E8E2FC
:1000A000F1E000E00BBF02C007900D92A030B10755
:1000B000D9F71BBE11E0A0E0B1E001C01D92A03055
:1000C000B107E1F70E9468000C9492000C940000C4
:1000D00087EF84BB88E085BB49E150E09B99FECF68
:1000E00020E030E010C088E893E1FA013197F1F7A1
:1000F0000197D9F7AD9A88E893E1FA013197F1F7C2
:100100000197D9F7AD982F5F3F4F2630310559F74A
:10011000E5CF87EF84BB88E085BB0895AD9A08954D
:08012000AD980895F894FFCF9B
:00000001FF
