:03000000020B549C
:0C0B5400787FE4F6D8FD758121020800CE
:1008D90057656C636F6D652032205246494420008C
:1008E9005461672052656164204578616D706C655B
:1008F90000504C5A2053686F7720596F75722052F7
:1009090046494420004361726400556E69717565FA
:0A09190020636172642049443A0033
:0909D100120889D2817F057E0025
:1009DA00E4FDFCC3ED9FEE6480F8EC64809850154A
:1009EA00E4FBFA0BBB00010AEB64644A70F50DBD27
:0509FA0000010C80DE8D
:0109FF0022D5
:10088900EF30E004D2A08002C2A0EF30E104D2A18F
:100899008002C2A1EF30E204D2A28002C2A2EF30EC
:1008A900E304D2A38002C2A3EF30E404D2A48002FD
:1008B900C2A4EF30E504D2A58002C2A5EF30E60458
:1008C900D2A68002C2A6EF30E703D2A722C2A7228E
:070B45007E001209DA7F3087
:080B4C00C2801209D1C281220E
:050B86007F01020B4C91
:0B0AD5007FE87E03120AFB7D017F0218
:100AE0008F19A905E519B40105E924808008E519E5
:0B0AF000B40207E924C0FF120B4C22E7
:100A8300E4FF120889C2807FC8120B457F32120B24
:100A9300457F6E120B457F38120B4C7F0C120B4CAB
:0A0AA3007F01120B4C7F06020B4C82
:080B7E00D2801209D1C28122CC
:0C096300120AFB120B867BFF7A0879FA5F
:06096F008B198A1A891B96
:10097500E4F51CF51DAB19AA1AA91B851D82851C5A
:1009850083120A00FF600D120B7E051DE51D70E543
:04099500051C80E1DC
:01099900223B
:050B8B007F1C020B4C71
:050B90007F18020B4C70
:100AAD00EF30E004D2A48002C2A4EF30E104D2A55D
:100ABD008002C2A5EF30E204D2A68002C2A6EF30BA
:080ACD00E303D2A722C2A72215
:070B21007E001209DA7F03D8
:0B0B2800C280120AAD1209D4C2812263
:0A0B6000E4FF120B287F01020B28AE
:040923008F1EA90575
:10092700E51EB40112E92480FFF51F7804A2E7133E
:10093700D8FBF520EF8016E51EB4021FE92480F5E9
:100947001F7804A2E713D8FBF520E924C0540FF55C
:0B09570021AF20120B28AF21120B284B
:010962002272
:10099A00E4FF120AAD7FC8120B217F32120B217FAE
:1009AA006E120B217F02120B287F02120B287F087E
:1009BA00120B28E4FF120B287F0C120B28E4FF12FB
:0709CA000B287F06020B2839
:020A2D00AE0712
:100A2F00EE540FF9EE54F0FFD2807804A2E713D8FA
:100A3F00FBFF120AAD1209D4C281AF01120AADD267
:080A4F00817F051209DAC28162
:010A5700227C
:060A58008B148A158916BB
:100A5E00E4F517F518AB14AA15A916851882851793
:100A6E0083120A00FF600D120A2D0518E51870E5B5
:040A7E00051780E1F7
:010A82002251
:0A0B6A007F01120B287F0C020B28FC
:0A0B74007F01120B287F08020B28F6
:100AFB00E4FDFCC3ED9FEE6480F8EC648098501528
:100B0B00E4FBFA0BBB00010AEB64644A70F50DBD04
:050B1B0000010C80DE6A
:010B200022B2
:100B3300E4FF3098FD74082FF8A699C2980FBF0CF4
:010B4300F1C0
:010B4400228E
:10080000758920758DFD759850D28E120A837D01F1
:100810007F01120AE07BFF7A0879D912096F120A68
:10082000D57BFF7A0879E912096F7D017F01120AF1
:10083000E07FE87E03120963120AD57BFF7A09790B
:100840000E12096F120B33120B867D017F01120A03
:10085000E07BFF7A09791312096F120ADC9000001D
:10086000AF8274082FF8E6FF120B7EA3E582640CBA
:10087000458370EC7F887E13120963120AD57BFFD3
:090880007A09790E12096F80BBA0
:100A0000BB010CE58229F582E5833AF583E02250AB
:100A100006E92582F8E622BBFE06E92582F8E222F5
:0D0A2000E58229F582E5833AF583E493220F
:00000001FF
