:100000000C9462000C948A000C948A000C948A0070
:100010000C948A000C948A000C948A000C948A0038
:100020000C948A000C948A000C948A000C948A0028
:100030000C948A000C948A000C948A000C948A0018
:100040000C94FD000C948A000C94EF020C943D0378
:100050000C948A000C948A000C948A000C948A00F8
:100060000C948A000C948A000000000024002700F1
:100070002A0000000000250028002B0000000000DE
:1000800023002600290004040404040404040202DA
:100090000202020203030303030301020408102007
:1000A0004080010204081020010204081020000012
:1000B0000007000201000003040600000000000029
:1000C0000000A90411241FBECFEFD8E0DEBFCDBFD2
:1000D00011E0A0E0B1E0EAECFBE002C005900D9277
:1000E000A431B107D9F711E0A4E1B1E001C01D923C
:1000F000AB3CB107E1F710E0C4ECD0E004C02297BC
:10010000FE010E94DF05C23CD107C9F70E94FF042F
:100110000C94E3050C940000AF92BF92CF92DF9253
:10012000EF92FF920F931F938EE00E94D90190935C
:1001300015018093140100D000D0AA2797FDA09547
:10014000BA2F2FEF30E040E050E0EDB7FEB721834B
:10015000328343835483BC01CD0120E030E040E092
:1001600050E0EFEFEE2EE3E0FE2E012D112DAA243C
:10017000BB2465010E9438059B01AC0170931701F7
:10018000609316010F900F900F900F9089E0B901C6
:100190000E94FB018091160190911701069784F04F
:1001A0008091000161E00E949A026AE070E080E0C4
:1001B00090E00E9445018091000160E00E949A0257
:1001C00064E170E080E090E00E9445011F910F9192
:1001D000FF90EF90DF90CF90BF90AF900895809107
:1001E000000161E00E945B0289EA91E040E855E28B
:1001F00060E070E00E94780308951F920F920FB69E
:100200000F9211242F933F938F939F93AF93BF939C
:1002100080911C0190911D01A0911E01B0911F01C0
:10022000309120010196A11DB11D232F2D5F2D3787
:1002300020F02D570196A11DB11D20932001809320
:100240001C0190931D01A0931E01B0931F0180918A
:10025000180190911901A0911A01B0911B0101960A
:10026000A11DB11D8093180190931901A0931A014B
:10027000B0931B01BF91AF919F918F913F912F91AF
:100280000F900FBE0F901F9018959B01AC017FB788
:10029000F8948091180190911901A0911A01B091E0
:1002A0001B0166B5A89B05C06F3F19F00196A11D03
:1002B000B11D7FBFBA2FA92F982F8827860F911DB8
:1002C000A11DB11D62E0880F991FAA1FBB1F6A956F
:1002D000D1F7BC012DC0FFB7F8948091180190911F
:1002E0001901A0911A01B0911B01E6B5A89B05C0A8
:1002F000EF3F19F00196A11DB11DFFBFBA2FA92F25
:10030000982F88278E0F911DA11DB11DE2E0880F47
:10031000991FAA1FBB1FEA95D1F7861B970B885E12
:100320009340C8F2215030404040504068517C4FCB
:10033000211531054105510571F60895789484B56C
:10034000826084BD84B5816084BD85B5826085BDD1
:1003500085B5816085BDEEE6F0E0808181608083B7
:10036000E1E8F0E01082808182608083808181609A
:100370008083E0E8F0E0808181608083E1EBF0E061
:10038000808184608083E0EBF0E080818160808305
:10039000EAE7F0E0808184608083808182608083EE
:1003A0008081816080838081806880831092C10019
:1003B0000895982F8E3008F09E509770809102011A
:1003C0008295880F880F807C892B80937C00809198
:1003D0007A00806480937A0080917A0086FDFCCF59
:1003E0002091780040917900942F80E030E0282B14
:1003F000392BC90108951F93CF93DF93182FEB0179
:1004000061E00E945B02209709F44AC0CF3FD1050A
:1004100009F449C0E12FF0E0E255FF4F84918330A9
:10042000C1F0843028F4813051F08230B1F50CC035
:10043000863019F1873049F1843079F514C084B5DC
:10044000806884BDC7BD33C084B5806284BDC8BD2B
:100450002EC080918000806880938000D0938900B6
:10046000C093880024C080918000806280938000C7
:10047000D0938B00C0938A001AC08091B00080682E
:100480008093B000C093B30012C08091B00080622E
:100490008093B000C093B4000AC0C038D1051CF4EA
:1004A000812F60E002C0812F61E00E949A02DF91FB
:1004B000CF911F910895CF93DF93482F50E0CA0149
:1004C00086569F4FFC0134914A575F4FFA01849141
:1004D000882369F190E0880F991FFC01E859FF4FCC
:1004E000A591B491FC01EE58FF4FC591D4916623BC
:1004F00051F42FB7F8948C91932F909589238C9376
:10050000888189230BC0623061F42FB7F8948C91F5
:10051000932F909589238C938881832B88832FBF79
:1005200006C09FB7F8948C91832B8C939FBFDF916B
:10053000CF910895482F50E0CA0182559F4FFC018A
:100540002491CA0186569F4FFC0194914A575F4FF0
:10055000FA013491332309F440C0222351F12330AE
:1005600071F0243028F42130A1F0223011F514C0AC
:100570002630B1F02730C1F02430D9F404C0809186
:1005800080008F7703C0809180008F7D80938000F2
:1005900010C084B58F7702C084B58F7D84BD09C03B
:1005A0008091B0008F7703C08091B0008F7D8093E1
:1005B000B000E32FF0E0EE0FFF1FEE58FF4FA591C4
:1005C000B4912FB7F894662321F48C9190958923E8
:1005D00002C08C91892B8C932FBF089508951F9290
:1005E0000F920FB60F9211242F933F934F938F9337
:1005F0009F93EF93FF938091C00082FD1DC04091B7
:10060000C60020916101309162012F5F3F4F2F732F
:10061000307080916301909164012817390771F05F
:10062000E0916101F0916201EF5DFE4F40833093F4
:1006300062012093610102C08091C600FF91EF9199
:100640009F918F914F913F912F910F900FBE0F90DF
:100650001F901895E091B501F091B601E05CFF4F55
:100660008191919120813181821B930B8F739070C6
:10067000892B11F00E94EE0208951F920F920FB67F
:100680000F9211242F933F938F939F93EF93FF9398
:100690002091A5013091A6018091A7019091A80118
:1006A0002817390731F48091C1008F7D8093C100F4
:1006B00014C0E091A701F091A801EB59FE4F2081F1
:1006C0008091A7019091A80101968F7390709093EB
:1006D000A8018093A7012093C600FF91EF919F91FD
:1006E0008F913F912F910F900FBE0F901F901895F3
:1006F000AF92BF92DF92EF92FF920F931F93CF932F
:10070000DF93EC017A018B01DD24403081EE580744
:1007100080E0680780E0780711F0DD24D39491E051
:10072000A92EB12CEC89FD89DD2069F0C50108A056
:1007300002C0880F991F0A94E2F7808360E079E095
:100740008DE390E005C0108260E874E88EE190E0EF
:10075000A80197010E94A005215030404040504020
:10076000569547953795279580E12030380720F03A
:10077000DD2011F0DD24D6CFE889F9893083EA89BC
:10078000FB89208319A2EE89FF89408121E030E0B6
:10079000C9010C8C02C0880F991F0A94E2F7482BFC
:1007A0004083EE89FF894081C9010D8C02C0880F0A
:1007B000991F0A94E2F7482B4083EE89FF89408114
:1007C000C9010E8C02C0880F991F0A94E2F7482BCA
:1007D0004083EE89FF8980810F8C02C0220F331F76
:1007E0000A94E2F7209528232083DF91CF911F916F
:1007F0000F91FF90EF90DF90BF90AF900895DC01D4
:100800001C96ED91FC911D97E05CFF4F2191319179
:1008100080819181281B390B2F733070C901089595
:10082000DC011C96ED91FC911D97E05CFF4F20814F
:100830003181E054F040DF01AE5BBF4F8D919C9160
:1008400011972817390719F42FEF3FEF07C08D9143
:100850009C91E80FF91F8081282F30E0C90108958D
:10086000DC011C96ED91FC911D97E05CFF4F20810F
:100870003181E054F040DF01AE5BBF4F8D919C9120
:1008800011972817390719F42FEF3FEF10C08D91FA
:100890009C911197E80FF91F20818D919C911197E0
:1008A00001968F73907011969C938E9330E0C901DE
:1008B0000895DC0191968C919197882339F0549694
:1008C000ED91FC915597808186FFF9CF91961C920E
:1008D0000895CF93DF93EC01EE85FF85E05CFF4F39
:1008E00020813181E054F0402F5F3F4F2F733070F3
:1008F000DF01AE5BBF4F8D919C911197281739078F
:10090000D1F3E05CFF4F80819181E054F040E80F2B
:10091000F91F6083EE85FF85E05CFF4F3183208304
:10092000EE89FF89208181E090E00F8C02C0880F62
:10093000991F0A94E2F7282B208381E089A3EC8990
:10094000FD8980818064808381E090E0DF91CF9198
:1009500008951092AC011092AB0188EE93E0A0E0F4
:10096000B0E08093AD019093AE01A093AF01B0933E
:10097000B00187E091E09093AA018093A90181E200
:1009800091E09093B6018093B50185E691E0909354
:10099000B8018093B70185EC90E09093BA01809301
:1009A000B90184EC90E09093BC018093BB0180EC92
:1009B00090E09093BE018093BD0181EC90E0909314
:1009C000C0018093BF0182EC90E09093C2018093BC
:1009D000C10186EC90E09093C4018093C30184E050
:1009E0008093C50183E08093C60187E08093C701AF
:1009F00085E08093C80181E08093C9010895CF9379
:100A0000DF930E949E010E94EF00CAE2D3E00E94A1
:100A10008C002097E1F30E942A03F9CFCF92DF9256
:100A2000EF92FF920F931F93CF93DF937C016B01A3
:100A30008A01C0E0D0E00FC0D6016D916D01D701F1
:100A4000ED91FC910190F081E02DC7010995C80F4F
:100A5000D91F015010400115110571F7CE01DF912A
:100A6000CF911F910F91FF90EF90DF90CF9008955D
:100A70002F923F924F925F926F927F928F929F92AE
:100A8000AF92BF92CF92DF92EF92FF920F931F939C
:100A9000DF93CF93CDB7DEB73B014C0119012A019B
:100AA0006D897E898F89988D6A197B098C099D09CA
:100AB000621A730A840A950AA40193010E948105AF
:100AC000E218F30804091509A80197010E94C2055C
:100AD0002A0D3B1D4C1D5D1DB901CA01CF91DF914F
:100AE0001F910F91FF90EF90DF90CF90BF90AF904C
:100AF0009F908F907F906F905F904F903F902F903E
:100B00000895629FD001739FF001829FE00DF11D57
:100B1000649FE00DF11D929FF00D839FF00D749F77
:100B2000F00D659FF00D9927729FB00DE11DF91F23
:100B3000639FB00DE11DF91FBD01CF011124089580
:100B4000A1E21A2EAA1BBB1BFD010DC0AA1FBB1FD1
:100B5000EE1FFF1FA217B307E407F50720F0A21B43
:100B6000B30BE40BF50B661F771F881F991F1A94B0
:100B700069F760957095809590959B01AC01BD01DA
:100B8000CF01089597FB092E05260ED057FD04D0FE
:100B9000D7DF0AD0001C38F4509540953095219548
:100BA0003F4F4F4F5F4F0895F6F7909580957095A2
:100BB00061957F4F8F4F9F4F0895EE0FFF1F059058
:0A0BC000F491E02D0994F894FFCFA2
:100BCA000D00010000000069040E05FF0330041047
:040BDA0004590400B6
:00000001FF
