:03000000020B9D53
:0C0B9D00787FE4F6D8FD75810D02080099
:1009A3002057656C636F6D6520746F0043454C6120
:1009B3006200556E64657267726F756E6420636161
:1009C300626C65004661756C742046696E6465727D
:1009D30000522D3E533120533220533320533400E1
:1009E3002020204620202D20202D20202D200020D7
:1009F30020202D20204620202D20202D20002020C7
:100A0300202D20202D20204620202D2000202020B6
:100A13002D20202D20202D20204620002020202D99
:100A230020202D20202D20202D2000592D3E533114
:100A330020533220533320533400472D3E5331206B
:090A4300533220533320533400D8
:040B3D007F887E131C
:100B4100E4FDFCD3ED9FEC9E5015E4FBFA0BBB00DA
:0F0B5100010AEB64654A70F50DBD00010C80E4EC
:010B60002272
:100B8D008FA0C280D2817F0A7E00120B41C28122CA
:070B6100E4FF120B68E4FF42
:100B68008FA0D280D2817F0A7E00120B41C28122DF
:060B10008B088A09890A26
:100B1600120B788F0BE4F50CE50CD3950B5017AB45
:100B260008AA09A90A850C82758300120A9AFF127F
:060B36000B68050C80E2D3
:010B3C002296
:100AE0007F40120B8D7F04120B687F11120B687F01
:100AF00011120B687F04120B68120B61120B617FDD
:100B0000C8120B8DE4FF120B687F0A7E00020B41B6
:070A4C007F2C7E01120B411B
:100A5300C2B5D2B5E59075F0058475F003A4F50D24
:100A630075F00A8485F008E50D75F00A8475F00ABF
:100A73008485F009E50D75F06484F97FC0120B8D50
:100A8300E92430FF120B68E5092430FF120B68E5F7
:070A9300082430FF020B688C
:10080000E4F580F5A0F5B07F38120B8D7F06120B52
:100810008D7F0C120B8D7BFF7A0979A3120B107F51
:10082000C0120B8D7BFF7A0979AF120B107FD07E3F
:1008300007120B417F80120B8D7BFF7A0979B5126D
:100840000B107FC0120B8D7BFF7A0979C7120B103A
:100850007FD07E07120B417F01120B8DE4F50DC294
:1008600082C283C284D282120A4C7F80120B8D7B9B
:10087000FF7A0979D4120B107FC0120B8DE50DD3CE
:10088000949140087BFF7A0979E3803AE50DD3948F
:100890004640087BFF7A0979F2802BE50DD3942D31
:1008A00040087BFF7A0A7901801CE50DD3941E4035
:1008B000087BFF7A0A7910800DE50DC3940A500970
:1008C0007BFF7A0A791F120B10C282120B3DD28372
:1008D000120A4C7F80120B8D7BFF7A0A792E120B45
:1008E000107FC0120B8DE50DD3949140087BFF7AE9
:1008F0000979E3803AE50DD3944640087BFF7A09F5
:1009000079F2802BE50DD3942D40087BFF7A0A798C
:1009100001801CE50DD3941E40087BFF7A0A7910F4
:10092000800DE50DC3940A50097BFF7A0A791F12E6
:100930000B10C283120B3DD284120A4C7F80120B23
:100940008D7BFF7A0A793D120B107FC0120B8DE56B
:100950000DD3949140087BFF7A0979E3803AE50D45
:10096000D3944640087BFF7A0979F2802BE50DD3BA
:10097000942D40087BFF7A0A7901801CE50DD39401
:100980001E40087BFF7A0A7910800DE50DC3940A9A
:1009900050097BFF7A0A791F120B10C284120B3D9B
:0309A000020865E5
:100A9A00BB010CE58229F582E5833AF583E0225011
:100AAA0006E92582F8E622BBFE06E92582F8E2225B
:0D0ABA00E58229F582E5833AF583E4932275
:100B7800E4FFFE120AC7600C0FEF70010E09E9705E
:050B8800F20A80EF22DB
:100AC700BB010689828A83E0225002E722BBFE022D
:090AD700E32289828A83E4932260
:00000001FF
