:030000000208955E
:0C089500787FE4F6D8FD758107020800AA
:10087500E4FDFCC3ED9FEC9E5015E4FBFA0BBB00B9
:0F088500010ABA03F8BB6BF50DBD00010C80E44E
:010894002241
:10080000900000E4F5A07580FFD2A0D2A1D2A2D2C0
:10081000A3D2A4C2A07F64FE12087530850CD2A0BA
:10082000D2A1D2A2D2A3D2A480F1E4F583F5823082
:100830008001A3308101A3308201A3308301A33062
:100840008401A3D2A0D2A1D2A2D2A3D2A4D3E58202
:100850009403E583648094805008C2A0C2A2C2A41D
:10086000800AC2A0C2A1C2A2C2A3C2A47F327E00DB
:0508700012087580A6CE
:00000001FF
