:03000000020A658C
:0C0A6500787FE4F6D8FD758128020AAC09
:1009CC0057656C636F6D65203220536D61727400D6
:1009DC0054726176656C6C696E6700504C5A20538A
:1009EC00686F7720596F75720043617264005661AD
:1009FC006C696420557365720053656174204E6F89
:100A0C003A20310053656174204E6F3A2032005306
:100A1C00656174204E6F3A20330053656174204E2B
:100A2C006F3A20340053656174204E6F3A203500C4
:100A3C00536F7272793A20004E6F20536561747354
:100A4C002000496E76616C696420557365720054A0
:090A5C00727920416761696E00A6
:070D96000508303030303059
:090BE900120AF1D2817F057E00A1
:100BF200E4FDFCC3ED9FEE6480F8EC648098501530
:100C0200E4FBFA0BBB00010AEB64644A70F50DBD0C
:050C120000010C80DE72
:010C170022BA
:100AF100EF30E004D2A08002C2A0EF30E104D2A125
:100B01008002C2A1EF30E204D2A28002C2A2EF3081
:100B1100E304D2A38002C2A3EF30E404D2A4800292
:100B2100C2A4EF30E504D2A58002C2A5EF30E604ED
:100B3100D2A68002C2A6EF30E703D2A722C2A72223
:070D61007E00120BF27F304F
:080D6800C280120BE9C28122D6
:050D9E007F01020D6859
:0B0D17007FE87E03120CC97D017F0203
:100D22008F1BA905E51BB40105E924808008E51B9A
:0B0D3200B40207E924C0FF120D682284
:100C9B00E4FF120AF1C2807FC8120D617F32120D80
:100CAB00617F6E120D617F38120D687F0C120D681B
:0A0CBB007F01120D687F06020D682C
:080D8E00D280120BE9C28122A0
:060BB8007BFF7A0979E7DA
:060BBE008B1B8A1C891D3F
:100BC400E4F51EF51FAB1BAA1CA91D851F82851EFB
:100BD40083120C18FF600D120D8E051FE51F70E5C2
:040BE400051E80E189
:010BE80022EA
:050DA3007F1C020D6839
:050DA8007F18020D6838
:100CEF00EF30E004D2A48002C2A4EF30E104D2A519
:100CFF008002C2A5EF30E204D2A68002C2A6EF3076
:080D0F00E303D2A722C2A722D0
:070D3D007E00120BF27F03A0
:0B0D4400C280120CEF120BECC28122E7
:0A0D7000E4FF120D447F01020D4460
:040B41008F25A9054E
:100B4500E525B40112E92480FFF5267804A2E71310
:100B5500D8FBF527EF8016E525B4021FE92480F5BB
:100B6500267804A2E713D8FBF527E924C0540FF52E
:0B0B750028AF27120D44AF28120D44DA
:010B80002252
:100B8100E4FF120CEF7FC8120D3D7F32120D3D7F45
:100B91006E120D3D7F02120D447F02120D447F083B
:100BA100120D44E4FF120D447F0C120D44E4FF12B8
:070BB1000D447F06020D4414
:020C4500AE07F8
:100C4700EE540FF9EE54F0FFD2807804A2E713D8E0
:100C5700FBFF120CEF120BECC281AF01120CEFD2AB
:080C6700817F05120BF2C2812E
:010C6F002262
:060C70008B208A2189227D
:100C7600E4F523F524AB20AA21A922852482852325
:100C860083120C18FF600D120C450524E52470E54F
:040C9600052380E1D1
:010C9A002237
:0A0D7A007F01120D447F0C020D44AE
:0A0D84007F01120D447F08020D44A8
:040CC5007FD07E0757
:100CC900E4FDFCC3ED9FEE6480F8EC648098501558
:100CD900E4FBFA0BBB00010AEB64644A70F50DBD35
:050CE90000010C80DE9B
:010CEE0022E3
:100D4F00E4FF3098FD740D2FF8A699C2980FBF0CD1
:010D5F00F1A2
:010D60002270
:10080000C2B2D2B4758920758DFD759850D28E1202
:100810000C9B7D017F01120D227BFF7A0979CC129E
:100820000BBE120D177BFF7A0979DC120BBE7FE835
:100830007E03120CC9120D9E7D017F01120D221242
:100840000BB8120D177BFF7A0979F5120BBE120D4A
:100850004FE50D6431703CE50E64337036E50F648E
:10086000307030E5106430702AE51164347024E58E
:1008700012B4411FE513B4371AE514B44115E51558
:10088000B43510E516B4320BE517B43706E5186435
:1008900031606CE50D64316003020992E50E64334A
:1008A0006003020992E50F64306003020992E510CB
:1008B00064306003020992E5116434600302099216
:1008C000E51264396003020992E513644360030290
:1008D0000992E51464466003020992E515643160EB
:1008E00003020992E51664366003020992E5176473
:1008F000386003020992E51864336003020992121A
:100900000D9E7D017F01120D227BFF7A0979FA127B
:100910000BBE120CC5E508B4300E750831120D1E61
:100920007BFF7A0A79058068E509B4300E750931D4
:10093000120D1E7BFF7A0A79108055E50AB4300E3D
:10094000750A31120D1E7BFF7A0A791B8060E50B58
:10095000B4300E750B31120D1E7BFF7A0A7926809A
:100960004DE50CB4300E750C31120D1E7BFF7A0A6A
:100970007931801C120D9E7D017F01120D227BFFBB
:100980007A0A793C120BBE120D1E7BFF7A0A79445B
:10099000801C120D9E7D017F01120D227BFF7A0AC1
:1009A000794E120BBE120D1E7BFF7A0A795B120B79
:1009B000BE120CC5120D9E120BB8120D177BFF7ADA
:0C09C0000979F5120BBE120CC502084E9E
:100A7100020800E493A3F8E493A34003F68001F293
:100A810008DFF48029E493A3F85407240CC8C33386
:100A9100C4540F4420C8834004F456800146F6DF55
:100AA100E4800B0102040810204080900D96E47E42
:100AB100019360BCA3FF543F30E509541FFEE4934A
:100AC100A360010ECF54C025E060A840B8E493A311
:100AD100FAE493A3F8E493A3C8C582C8CAC583CA3C
:100AE100F0A3C8C582C8CAC583CADFE9DEE780BEF4
:010D9D000055
:100C1800BB010CE58229F582E5833AF583E0225091
:100C280006E92582F8E622BBFE06E92582F8E222DB
:0D0C3800E58229F582E5833AF583E49322F5
:00000001FF
