:030F660025630000
:090D6700120CA0D2817F057E0070
:100D7000E4FDFCC3ED9FEE6480F8EC6480985015B0
:100D8000E4FBFA0BBB00010AEB64644A70F50DBD8D
:050D900000010C80DEF3
:010D9500223B
:100CA000EF30E004D2A08002C2A0EF30E104D2A174
:100CB0008002C2A1EF30E204D2A28002C2A2EF30D1
:100CC000E304D2A38002C2A3EF30E404D2A48002E2
:100CD000C2A4EF30E504D2A58002C2A5EF30E6043D
:100CE000D2A68002C2A6EF30E703D2A722C2A72273
:070F07007E00120D707F3027
:080F0E00C280120D67C28122AE
:050F52007F01020F0EFB
:100EB6008F38A905E538B40105E924808008E538AE
:0B0EC600B40207E924C0FF120F0E2247
:100E1700E4FF120CA0C2807FC8120F077F32120FA7
:100E2700077F6E120F077F38120F0E7F0C120F0EFF
:0A0E37007F01120F0E7F06020F0E5E
:080F4A00D280120D67C2812262
:060D96008B088A09890A9E
:100D9C00E4F50BF50CAB08AA09A90A850C82850BA6
:100DAC0083120B17FF600D120F4A050CE50C70E552
:040DBC00050B80E1C2
:010DC0002210
:050F57007F1C020F0EDB
:050F5C007F18020F0EDA
:100E4100EF30E004D2A48002C2A4EF30E104D2A5C5
:100E51008002C2A5EF30E204D2A68002C2A6EF3022
:080E6100E303D2A722C2A7227D
:070EE4007E00120D707F0378
:0B0EEB00C280120E41120D6AC281226B
:0A0F2200E4FF120EEB7F01020EEB5C
:040CF0008F12A905B1
:100CF400E512B40112E92480FFF5137804A2E71386
:100D0400D8FBF514EF8016E512B4021FE92480F530
:100D1400137804A2E713D8FBF514E924C0540FF5A3
:0B0D240015AF14120EEBAF15120EEB12
:010D2F0022A1
:100D3000E4FF120E417FC8120EE47F32120EE47FF0
:100D40006E120EE47F02120EEB7F02120EEB7F0892
:100D5000120EEBE4FF120EEB7F0C120EEBE4FF120F
:070D60000EEB7F06020EEB13
:020DC100AE077B
:100DC300EE540FF9EE54F0FFD2807804A2E713D863
:100DD300FBFF120E41120D6AC281AF01120E41D206
:080DE300817F05120D70C28131
:010DEB0022E5
:060DEC008B0D8A0E890F39
:100DF200E4F510F511AB0DAA0EA90F85118285102D
:100E020083120B17FF600D120DC10511E51170E57C
:040E1200051080E166
:010E160022B9
:0A0F2C007F01120EEB7F0C020EEBAA
:0A0F36007F01120EEB7F08020EEBA4
:100E9000E4FDFCC3ED9FEE6480F8EC64809850158F
:100EA000E4FBFA0BBB00010AEB64644A70F50DBD6C
:050EB00000010C80DED2
:010EB500221A
:100C2900E4F521F522759850438920758DF4D28E0B
:100C3900D299120E17C282C283753B00753C0075AA
:100C49003D377BFF7A0F79661208820522E522700B
:100C590002052114FD7F01120EB6AF37120F4AE5C6
:100C690037B46106D283C2828009E537B46216C2FD
:100C790083D2827FB87E0B120E90D283D2827FE814
:100C89007E03120E90E5226410452170AC120F52BA
:070C9900E4F521F52280A221
:03000000020F16D6
:0C0F1600787FE4F6D8FD758151020C29AB
:100B1700BB010CE58229F582E5833AF583E0225093
:100B270006E92582F8E622BBFE06E92582F8E222DD
:0D0B3700E58229F582E5833AF583E49322F7
:10080000E54D30030104F82328243BF822783830E2
:100810000302783BE475F001120BBF020B4460EC5D
:10082000C5517002155014C551200304FF020F6119
:10083000783874FFF5F0020BCFFF020ED1E54E6061
:1008400006D54E037F002220030F120EF6EF60083C
:100850000551E55170020550227838120BB6120B83
:1008600044FF60E97838E475F001120BBF80DE12B6
:100870000847EFC0E0120839D0E040F380A0D2036F
:100880008002C2038B388A39893AE4F54FF54DF579
:1008900050F551754E00C202C200C201C2041208D6
:1008A0000DFF7005AF4F7E0022B4253012080DFFFA
:1008B00024D0B40A00500C75F00AC54EA4254EF59C
:1008C0004E80E924CFB41A00EF5002C2E5020AE3D9
:1008D000D20180D8D20080D4D20480D0EF1208395F
:1008E000500812086FEF600E80A9EFC0E0120847B1
:1008F000D0E06F609EEF607412081E80A712084758
:10090000EF6069E54E7007054E8003120847EF60FF
:100910001420040E120800E475F001120BBFEF1250
:100920000B5DD54EE6200404054D054F80BA120834
:100930003DEFC0E0120839D0E0500412081EE4FF79
:1009400020040E120800E475F001120BBFEF120B29
:100950005DEF70DA200404054D054F808BE54E6095
:1009600002054E12086F12083DEF70C6300304E412
:1009700012081EE54F60030208A47EFF7FFF2220BD
:10098000041174FFFCFDFEFF120800120BB6120BDF
:100990009C054D020893D0E080D27900800A79103E
:1009A000800679088002790AD205E54E6002054E7C
:1009B000E9C0E012086FEF60DD120847BF2D04D2D6
:1009C000028003BF2B0912086FEF60CA12083DD0E6
:1009D000E0B40A028033B40802802EBF30277002D0
:1009E0007408C205C0E012083DD0E0BF7802800361
:1009F000BF5816054ED54E028007D54E04D205804D
:100A00000B741080197002740ABF000AEFF8E4FC3E
:100A1000FDFEFF020A96C0E0EF12081ED0E0F9E4E6
:100A2000FCFDFEFFE9C0E0ECC0E0EDC0E0EEC0E0A0
:100A3000EFC0E012083DEFF8D0E0FFD0E0FED0E0DC
:100A4000FDD0E0FCD0F0E8604DB461004007B47B1D
:100A5000005002C2E524D0503DFA24F6500724F994
:100A60005034240AFAEAB5F000502BCFA9F0A42F95
:100A7000FF92D5E9C5F0CEA4A2D53EFE92D5E9C538
:100A8000F0CDA4A2D53DFD92D5E9C5F0CCA4A2D568
:0B0A90003CFCC205808EE8C0E02004A2
:100A9B002A200508054F300203120B8E1208001294
:100AAB000BB6054D20000B20010DEE8FF0120B6FD6
:100ABB008009120B9C8004EF120B5DD0E012081E14
:100ACB00020893200410120800120BB6054DE550D6
:100ADB008551F0120B6F80E8120BDF095D53099EF5
:100AEB005808D44C08D04208AC4809A24F09A64478
:100AFB0008FD43099A4909A655097F46097F45090F
:0C0B0B007F4708D82A0ACE4E000008DC04
:100B4400BB010689828A83E0225002E722BBFE02AF
:090B5400E32289828A83E49322E2
:100B5D00BB010689828A83F0225002F722BBFE0177
:020B6D00F32271
:100B6F00BB010A89828A83F0E5F0A3F0225006F7D1
:0F0B7F0009A7F01922BBFE06F3E5F009F31922CE
:0E0B8E00C3E49FFFE49EFEE49DFDE49CFC2278
:100B9C00BB010789828A83020C115005E9F8020C0B
:0A0BAC0005BBFE05E9F8020C1D224E
:090BB600E6FB08E6FA08E6F92264
:100BBF00FAE6FB0808E6F925F0F618E6CA3AF62237
:100BCF00FAE6FB0808E625F0F9F618E63AFAF622F7
:100BDF00D083D082F8E4937012740193700DA3A3A5
:100BEF0093F8740193F5828883E4737402936860B9
:060BFF00EFA3A3A380DFB9
:100EF60010060B120F40BF0D027F0A020E69AF16D5
:010F060022C8
:050F61008F16D20622EC
:100ED100EFC394094005EF940E4003BF2003D38074
:030EE10001C32228
:0C0C0500ECF608EDF608EEF608EFF6221B
:0C0C1100ECF0A3EDF0A3EEF0A3EFF02256
:0C0C1D00ECF208EDF208EEF208EFF22213
:100E6900EFB40A07740D120E74740A309811A89918
:100E7900B8130CC2983098FDA899C298B811F630E9
:070E890099FDC299F59922C1
:0A0F40003098FDAF99C2987E0022A0
:00000001FF
