:03000000020BCF21
:0C0BCF00787FE4F6D8FD7581190208EB70
:100B99004B65797320507265737365643A005469C3
:050BA9006D65733A00C8
:090A250012095ED2817F057E00FA
:100A2E00E4FDFCC3ED9FEE6480F8EC6480985015F5
:100A3E00E4FBFA0BBB00010AEB64644A70F50DBDD2
:050A4E0000010C80DE38
:010A53002280
:10095E00EF30E004D2A08002C2A0EF30E104D2A1B9
:10096E008002C2A1EF30E204D2A28002C2A2EF3016
:10097E00E304D2A38002C2A3EF30E404D2A4800227
:10098E00C2A4EF30E504D2A58002C2A5EF30E60482
:10099E00D2A68002C2A6EF30E703D2A722C2A722B8
:070BC0007E00120A2E7F30B7
:080BC700C280120A25C281223E
:050C01007F01020BC79A
:100B7E008F0CA905E50CB40105E924808008E50C6D
:0B0B8E00B40207E924C0FF120BC722CD
:100B0200E4FF12095EC2807FC8120BC07F32120B53
:100B1200C07F6E120BC07F38120BC77F0C120BC73F
:0A0B22007F01120BC77F06020BC70C
:080BF900D280120A25C28122FC
:060A81008B0C8A0D890EAA
:100A8700E4F50FF510AB0CAA0DA90E851082850FA2
:100A970083120A54FF600D120BF90510E51070E57B
:040AA700050F80E1D6
:010AAB002228
:050C06007F1C020BC77A
:050C0B007F18020BC779
:100B5600EF30E004D2A48002C2A4EF30E104D2A5B3
:100B66008002C2A5EF30E204D2A68002C2A6EF3010
:080B7600E303D2A722C2A7226B
:070BAE007E00120A2E7F03F6
:0B0BB500C280120B56120A28C28122D7
:0A0BDB00E4FF120BB57F01020BB519
:0409AE008F16A905F2
:1009B200E516B40112E92480FFF5177804A2E713C3
:1009C200D8FBF518EF8016E516B4021FE92480F56E
:1009D200177804A2E713D8FBF518E924C0540FF5E1
:0B09E20019AF18120BB5AF19120BB5BE
:0109ED0022E7
:1009EE00E4FF120B567FC8120BAE7F32120BAE7F96
:1009FE006E120BAE7F02120BB57F02120BB57F0883
:100A0E00120BB5E4FF120BB57F0C120BB5E4FF12FF
:070A1E000BB57F06020BB5CA
:020AAC00AE0793
:100AAE00EE540FF9EE54F0FFD2807804A2E713D87B
:100ABE00FBFF120B56120A28C281AF01120B56D23F
:080ACE00817F05120A2EC2818E
:010AD60022FD
:060AD7008B118A12891345
:100ADD00E4F514F515AB11AA12A913851582851429
:100AED0083120A54FF600D120AAC0515E51570E569
:040AFD00051480E17B
:010B010022D1
:0A0BE5007F01120BB57F0C020BB567
:0A0BEF007F01120BB57F08020BB561
:040B2C007F647E0064
:100B3000E4FDFCC3ED9FEE6480F8EC6480985015F2
:100B4000E4FBFA0BBB00010AEB64644A70F50DBDCF
:050B500000010C80DE35
:010B5500227D
:10080000D294D295D296D297C290D291D292D293CC
:10081000209409120B2C3094FD7F2B222095091275
:100820000B2C3095FD7F2D22209609120B2C309633
:10083000FD7F2A22209709120B2C3097FD7F2F2253
:10084000D290C291D292D293209409120B2C309460
:10085000FD7F3D22209509120B2C3095FD7F332220
:10086000209609120B2C3096FD7F36222097091214
:100870000B2C3097FD7F3922D290D291C292D29325
:10088000209409120B2C3094FD7F30222095091200
:100890000B2C3095FD7F3222209609120B2C3096BE
:1008A000FD7F3522209709120B2C3097FD7F3822CF
:1008B000D290D291D292C293209409120B2C3094F0
:1008C000FD7F4322209509120B2C3095FD7F3122AC
:1008D000209609120B2C3096FD7F342220970912A6
:0B08E0000B2C3097FD7F37227F002299
:1008EB00E4F508F509120B027D017F01120B7E7BEB
:1008FB00FF7A0B7999120A817D017F02120B7E7BA5
:10090B00FF7A0B79A7120A811208008F0AEF60F8A1
:10091B00850A0BE50B650A70300509E509700205C0
:10092B00087D0E7F01120B7EAF0A120BF97D077F3C
:10093B0002120B7EE5092430FF120BF9120B2C125D
:10094B0008008F0AEF70CC80F6E4F508F509120C5D
:03095B0001809583
:100A5400BB010CE58229F582E5833AF583E0225057
:100A640006E92582F8E622BBFE06E92582F8E222A1
:0D0A7400E58229F582E5833AF583E49322BB
:00000001FF
